{
  "address": "0xfB7246C98B6e6C8529c06359B237566e5Bc4677C",
  "abi": [
    {
      "inputs": [
        {
          "internalType": "contract IVestedToken",
          "name": "_vestedToken",
          "type": "address"
        },
        {
          "internalType": "contract ISt1inch",
          "name": "st1inch",
          "type": "address"
        }
      ],
      "stateMutability": "nonpayable",
      "type": "constructor"
    },
    {
      "inputs": [],
      "name": "OriginInTheFuture",
      "type": "error"
    },
    {
      "anonymous": false,
      "inputs": [
        {
          "indexed": true,
          "internalType": "address",
          "name": "previousOwner",
          "type": "address"
        },
        {
          "indexed": true,
          "internalType": "address",
          "name": "newOwner",
          "type": "address"
        }
      ],
      "name": "OwnershipTransferred",
      "type": "event"
    },
    {
      "inputs": [
        {
          "internalType": "address[]",
          "name": "vestings",
          "type": "address[]"
        }
      ],
      "name": "deregisterVestings",
      "outputs": [],
      "stateMutability": "nonpayable",
      "type": "function"
    },
    {
      "inputs": [],
      "name": "expBase",
      "outputs": [
        {
          "internalType": "uint256",
          "name": "",
          "type": "uint256"
        }
      ],
      "stateMutability": "view",
      "type": "function"
    },
    {
      "inputs": [],
      "name": "origin",
      "outputs": [
        {
          "internalType": "uint256",
          "name": "",
          "type": "uint256"
        }
      ],
      "stateMutability": "view",
      "type": "function"
    },
    {
      "inputs": [],
      "name": "owner",
      "outputs": [
        {
          "internalType": "address",
          "name": "",
          "type": "address"
        }
      ],
      "stateMutability": "view",
      "type": "function"
    },
    {
      "inputs": [
        {
          "internalType": "address[]",
          "name": "vestings",
          "type": "address[]"
        }
      ],
      "name": "registerVestings",
      "outputs": [],
      "stateMutability": "nonpayable",
      "type": "function"
    },
    {
      "inputs": [],
      "name": "renounceOwnership",
      "outputs": [],
      "stateMutability": "nonpayable",
      "type": "function"
    },
    {
      "inputs": [
        {
          "internalType": "address",
          "name": "newOwner",
          "type": "address"
        }
      ],
      "name": "transferOwnership",
      "outputs": [],
      "stateMutability": "nonpayable",
      "type": "function"
    },
    {
      "inputs": [],
      "name": "vestedToken",
      "outputs": [
        {
          "internalType": "contract IVestedToken",
          "name": "",
          "type": "address"
        }
      ],
      "stateMutability": "view",
      "type": "function"
    },
    {
      "inputs": [
        {
          "internalType": "address",
          "name": "newOwner",
          "type": "address"
        }
      ],
      "name": "vestedTokenTransferOwnership",
      "outputs": [],
      "stateMutability": "nonpayable",
      "type": "function"
    },
    {
      "inputs": [
        {
          "internalType": "address",
          "name": "receiver",
          "type": "address"
        }
      ],
      "name": "vestingsByReceiver",
      "outputs": [
        {
          "internalType": "address[]",
          "name": "",
          "type": "address[]"
        }
      ],
      "stateMutability": "view",
      "type": "function"
    },
    {
      "inputs": [
        {
          "internalType": "address",
          "name": "account",
          "type": "address"
        }
      ],
      "name": "votingPowerOf",
      "outputs": [
        {
          "internalType": "uint256",
          "name": "votingPower",
          "type": "uint256"
        }
      ],
      "stateMutability": "view",
      "type": "function"
    }
  ],
  "transactionHash": "0x42d4f9cbb2eb7bb59148cce26018295983d713f473fc47f22d2817e5a336c724",
  "args": [
    "0x03d1B1A56708FA298198DD5e23651a29B76a16d2",
    "0x9A0C8Ff858d273f57072D714bca7411D717501D7"
  ],
  "numDeployments": 2,
  "solcInputHash": "94a7849a7db4b152980953f9f8b32d1a",
  "bytecode": "0x6104a08060405234620005ee5760408162002a0d8038038091620000248285620005f3565b833981010312620005ee578051906001600160a01b03908183168303620005ee5760208091015191808316809303620005ee57604051632f2a70ff60e21b8152928284600481845afa938415620005ad57600094620005b9575b5082600491604051928380926349c5af9960e11b82525afa928315620005ad5760009362000573575b50506000543360018060a01b0319821617600055604051913391167f8be0079c531659141344cd1fd0a4f28419497f9722a3daafe3b4186f6b6457e0600080a3428211620005645750670de0b6b3a76400006200030181620002f481620002e781620002da81620002cd81620002c081620002b3819f6200030e9f8362000299816200028c816200027f816200027281620002658162000258816200024b819f620002a69f836200023181620002248162000217816200020a81620001fd81620001f081620001e3819f6200023e9f83620001c981620001bc81620001af81620001a38199620001d6996080528060a0528060c052806200062d565b048060e052806200062d565b048061010052806200062d565b048061012052806200062d565b048061014052806200062d565b048061016052806200062d565b048061018052806200062d565b04806101a052806200062d565b04806101c052806200062d565b04806101e052806200062d565b048061020052806200062d565b048061022052806200062d565b048061024052806200062d565b048061026052806200062d565b048061028052806200062d565b04806102a052806200062d565b04806102c052806200062d565b04806102e052806200062d565b048061030052806200062d565b048061032052806200062d565b048061034052806200062d565b048061036052806200062d565b048061038052806200062d565b04806103a052806200062d565b04806103c052806200062d565b04806103e052806200062d565b048061040052806200062d565b048061042052806200062d565b048061044052806200062d565b0461046052610480526040516123b562000658823960805181818161094c0152818161137a0152611b06015260a051816108f3015260c051818181611ad6015261234d015260e051818181611aa10152612310015261010051818181611a6d01526122d4015261012051818181611a390152612298015261014051818181611a05015261225c0152610160518181816119d1015261222001526101805181818161199d01526121e401526101a05181818161196901526121a801526101c051818181611935015261216c01526101e05181818161190101526121300152610200518181816118cd01526120f401526102205181818161189901526120b8015261024051818181611865015261207c01526102605181818161183101526120400152610280518181816117fd015261200401526102a0518181816117c90152611fc801526102c0518181816117950152611f8c01526102e0518181816117610152611f5001526103005181818161172d0152611f140152610320518181816116f90152611ed80152610340518181816116c50152611e9c0152610360518181816116910152611e6001526103805181818161165d0152611e2401526103a0518181816116290152611de801526103c0518181816115f50152611dac01526103e0518181816115c10152611d7001526104005181818161158d0152611d340152610420518181816115590152611cf80152610440518181816115230152611cba0152610460518181816114ed0152611c7c0152610480518181816101fe01528181610b8301528181610bd60152610e1501526123b590f35b635a59719b60e01b8152600490fd5b8181949293943d8311620005a5575b6200058e8183620005f3565b81010312620005a2575051903880620000a7565b80fd5b503d62000582565b6040513d6000823e3d90fd5b90938382813d8311620005e6575b620005d38183620005f3565b81010312620005a257505192826200007e565b503d620005c7565b600080fd5b601f909101601f19168101906001600160401b038211908210176200061757604052565b634e487b7160e01b600052604160045260246000fd5b818102929181159184041417156200064157565b634e487b7160e01b600052601160045260246000fdfe6080604052600436101561001257600080fd5b6000803560e01c80630c911b6e14610dbc5780634ca66f1a14610ba75780635de2974114610b38578063641e5d1f14610a5d578063715018a6146109c05780638da5cb5b1461096f578063938b5f3214610916578063bca9c3fc146108bd578063bcc3f3bd14610422578063d9165e19146101cf5763f2fde38b1461009657600080fd5b346101cc5760207ffffffffffffffffffffffffffffffffffffffffffffffffffffffffffffffffc3601126101cc576100cd610e92565b6100d5610f20565b73ffffffffffffffffffffffffffffffffffffffff80911690811561014857600054827fffffffffffffffffffffffff0000000000000000000000000000000000000000821617600055167f8be0079c531659141344cd1fd0a4f28419497f9722a3daafe3b4186f6b6457e0600080a380f35b60846040517f08c379a000000000000000000000000000000000000000000000000000000000815260206004820152602660248201527f4f776e61626c653a206e6577206f776e657220697320746865207a65726f206160448201527f64647265737300000000000000000000000000000000000000000000000000006064820152fd5b80fd5b50346101cc576101de36610eb5565b6101e6610f20565b73ffffffffffffffffffffffffffffffffffffffff807f0000000000000000000000000000000000000000000000000000000000000000169184604051937f8da5cb5b0000000000000000000000000000000000000000000000000000000085526020948581600481855afa9081156104175783916103fa575b5084163014610383575b505b818110610277578580f35b8261028b61028683858961112c565b61113c565b16604051907ff7260d3e0000000000000000000000000000000000000000000000000000000082528582600481845afa918215610378576102e09286918a9161034b575b50168852600186526040882061115d565b156102ed5760010161026c565b606484604051907f08c379a00000000000000000000000000000000000000000000000000000000082526004820152601d60248201527f56657374696e6720697320616c726561647920726567697374657265640000006044820152fd5b61036b9150883d8a11610371575b6103638183610fe2565b8101906110a3565b386102cf565b503d610359565b6040513d8a823e3d90fd5b803b156103f6578160405180927fd9165e190000000000000000000000000000000000000000000000000000000082528183816103c4898d600484016110cf565b03925af180156103eb571561026a576103dc90610f9f565b6103e757843861026a565b8480fd5b6040513d84823e3d90fd5b5080fd5b6104119150863d8811610371576103638183610fe2565b38610260565b6040513d85823e3d90fd5b50346101cc5760207ffffffffffffffffffffffffffffffffffffffffffffffffffffffffffffffffc3601126101cc5761045a610e92565b73ffffffffffffffffffffffffffffffffffffffff1681526001602052604081208054908290815b83811061049457602085604051908152f35b73ffffffffffffffffffffffffffffffffffffffff6104b3828461105c565b90549060031b1c16604051907f1f2698ab000000000000000000000000000000000000000000000000000000008252602082600481845afa9182156108b257859261087e575b506040517fd85349f7000000000000000000000000000000000000000000000000000000008152602081600481855afa908115610873578691610841575b506040517f4a4e5776000000000000000000000000000000000000000000000000000000008152602081600481865afa908115610836578791610804575b50604051937f460ad439000000000000000000000000000000000000000000000000000000008552602085600481875afa9485156103785788956107d0575b50604051947f5d1fbf54000000000000000000000000000000000000000000000000000000008652602086600481885afa9586156107c5578996610791575b50604051947f1989488b000000000000000000000000000000000000000000000000000000008652602086600481845afa95861561074f578a9661075a575b50906020600492604051938480927fe834a8340000000000000000000000000000000000000000000000000000000082525afa91821561074f578a92610716575b508082106106ea575b895b878110610695575050505050505050600101610482565b600181018702820183106106ac575b60010161067e565b9b6001906106cf6106c88f840188028988010160148b04611b03565b4290611377565b808910156106e4575087905b019c90506106a4565b906106db565b9a6106fd6106c884870160148f04611b03565b808d101561071057508b905b019a61067c565b90610709565b9091506020813d602011610747575b8161073260209383610fe2565b8101031261074257519038610673565b600080fd5b3d9150610725565b6040513d8c823e3d90fd5b919095506020823d602011610789575b8161077760209383610fe2565b81010312610742579051946020610632565b3d915061076a565b9095506020813d6020116107bd575b816107ad60209383610fe2565b81010312610742575194386105f3565b3d91506107a0565b6040513d8b823e3d90fd5b9094506020813d6020116107fc575b816107ec60209383610fe2565b81010312610742575193386105b4565b3d91506107df565b90506020813d60201161082e575b8161081f60209383610fe2565b81010312610742575138610575565b3d9150610812565b6040513d89823e3d90fd5b90506020813d60201161086b575b8161085c60209383610fe2565b81010312610742575138610537565b3d915061084f565b6040513d88823e3d90fd5b9091506020813d6020116108aa575b8161089a60209383610fe2565b81010312610742575190386104f9565b3d915061088d565b6040513d87823e3d90fd5b50346101cc57807ffffffffffffffffffffffffffffffffffffffffffffffffffffffffffffffffc3601126101cc5760206040517f00000000000000000000000000000000000000000000000000000000000000008152f35b50346101cc57807ffffffffffffffffffffffffffffffffffffffffffffffffffffffffffffffffc3601126101cc5760206040517f00000000000000000000000000000000000000000000000000000000000000008152f35b50346101cc57807ffffffffffffffffffffffffffffffffffffffffffffffffffffffffffffffffc3601126101cc5773ffffffffffffffffffffffffffffffffffffffff6020915416604051908152f35b50346101cc57807ffffffffffffffffffffffffffffffffffffffffffffffffffffffffffffffffc3601126101cc576109f7610f20565b600073ffffffffffffffffffffffffffffffffffffffff81547fffffffffffffffffffffffff000000000000000000000000000000000000000081168355167f8be0079c531659141344cd1fd0a4f28419497f9722a3daafe3b4186f6b6457e08280a380f35b50346101cc576020807ffffffffffffffffffffffffffffffffffffffffffffffffffffffffffffffffc3601126103f6579073ffffffffffffffffffffffffffffffffffffffff9081610aae610e92565b168152600190818452604081209360405190818187549182815201908197855282852090855b818110610b255750505082610aea910383610fe2565b604051948186019282875251809352604086019693905b838210610b0e5786880387f35b845181168852968201969382019390850190610b01565b8254845292840192918701918701610ad4565b50346101cc57807ffffffffffffffffffffffffffffffffffffffffffffffffffffffffffffffffc3601126101cc57602060405173ffffffffffffffffffffffffffffffffffffffff7f0000000000000000000000000000000000000000000000000000000000000000168152f35b50346101cc57610bb636610eb5565b610bbe610f20565b73ffffffffffffffffffffffffffffffffffffffff807f0000000000000000000000000000000000000000000000000000000000000000169184604051937f8da5cb5b0000000000000000000000000000000000000000000000000000000085526020948581600481855afa908115610417578391610d9f575b5084163014610d3b575b505b818110610c4f578580f35b82610c5e61028683858961112c565b16604051907ff7260d3e0000000000000000000000000000000000000000000000000000000082528582600481845afa91821561037857610cb39286918a91610d1e575b50168852600186526040882061121e565b15610cc057600101610c44565b606484604051907f08c379a00000000000000000000000000000000000000000000000000000000082526004820152601960248201527f56657374696e67206973206e6f742072656769737465726564000000000000006044820152fd5b610d359150883d8a11610371576103638183610fe2565b38610ca2565b803b156103f6578160405180927f4ca66f1a000000000000000000000000000000000000000000000000000000008252818381610d7c898d600484016110cf565b03925af180156103eb5715610c4257610d9490610f9f565b6103e7578438610c42565b610db69150863d8811610371576103638183610fe2565b38610c38565b50346101cc5760207ffffffffffffffffffffffffffffffffffffffffffffffffffffffffffffffffc3601126101cc57610df4610e92565b610dfc610f20565b8173ffffffffffffffffffffffffffffffffffffffff807f00000000000000000000000000000000000000000000000000000000000000001692833b15610e8e576024908360405195869485937ff2fde38b0000000000000000000000000000000000000000000000000000000085521660048401525af180156103eb57610e82575080f35b610e8b90610f9f565b80f35b8280fd5b6004359073ffffffffffffffffffffffffffffffffffffffff8216820361074257565b9060207ffffffffffffffffffffffffffffffffffffffffffffffffffffffffffffffffc8301126107425760043567ffffffffffffffff9283821161074257806023830112156107425781600401359384116107425760248460051b83010111610742576024019190565b73ffffffffffffffffffffffffffffffffffffffff600054163303610f4157565b60646040517f08c379a000000000000000000000000000000000000000000000000000000000815260206004820152602060248201527f4f776e61626c653a2063616c6c6572206973206e6f7420746865206f776e65726044820152fd5b67ffffffffffffffff8111610fb357604052565b7f4e487b7100000000000000000000000000000000000000000000000000000000600052604160045260246000fd5b90601f7fffffffffffffffffffffffffffffffffffffffffffffffffffffffffffffffe0910116810190811067ffffffffffffffff821117610fb357604052565b811561102d570490565b7f4e487b7100000000000000000000000000000000000000000000000000000000600052601260045260246000fd5b80548210156110745760005260206000200190600090565b7f4e487b7100000000000000000000000000000000000000000000000000000000600052603260045260246000fd5b90816020910312610742575173ffffffffffffffffffffffffffffffffffffffff811681036107425790565b9091604060209282848201858352520192916000805b8382106110f457505050505090565b9091929394853573ffffffffffffffffffffffffffffffffffffffff8116809103610e8e5781528301948301939291600101906110e5565b91908110156110745760051b0190565b3573ffffffffffffffffffffffffffffffffffffffff811681036107425790565b9190600183016000908282528060205260408220541560001461121857845494680100000000000000008610156111eb57836111db6111a6886001604098999a0185558461105c565b81939154907fffffffffffffffffffffffffffffffffffffffffffffffffffffffffffffffff9060031b92831b921b19161790565b9055549382526020522055600190565b6024837f4e487b710000000000000000000000000000000000000000000000000000000081526041600452fd5b50925050565b90600182019060009281845282602052604084205490811515600014611370577fffffffffffffffffffffffffffffffffffffffffffffffffffffffffffffffff9182810181811161134357825490848201918211611316578082036112e1575b505050805480156112b457820191611297838361105c565b909182549160031b1b191690555582526020526040812055600190565b6024867f4e487b710000000000000000000000000000000000000000000000000000000081526031600452fd5b6113016112f16111a6938661105c565b90549060031b1c9283928661105c565b9055865284602052604086205538808061127f565b6024887f4e487b710000000000000000000000000000000000000000000000000000000081526011600452fd5b6024877f4e487b710000000000000000000000000000000000000000000000000000000081526011600452fd5b5050505090565b907f00000000000000000000000000000000000000000000000000000000000000009081811015611afe5750805b038160018216611ac8575b5060028116611a94575b60048116611a60575b60088116611a2c575b601081166119f8575b602081166119c4575b60408116611990575b6080811661195c575b6101008116611928575b61020081166118f4575b61040081166118c0575b610800811661188c575b6110008116611858575b6120008116611824575b61400081166117f0575b61800081166117bc575b620100008116611788575b620200008116611754575b620400008116611720575b6208000081166116ec575b6210000081166116b8575b622000008116611684575b624000008116611650575b62800000811661161c575b630100000081166115e8575b630200000081166115b4575b63040000008116611580575b6308000000811661154c575b63100000008116611511575b6320000000166114e15790565b670de0b6b3a7640000907f0000000000000000000000000000000000000000000000000000000000000000020490565b90670de0b6b3a76400006320000000917f000000000000000000000000000000000000000000000000000000000000000002049190506114d4565b90670de0b6b3a7640000907f00000000000000000000000000000000000000000000000000000000000000000204906114c8565b90670de0b6b3a7640000907f00000000000000000000000000000000000000000000000000000000000000000204906114bc565b90670de0b6b3a7640000907f00000000000000000000000000000000000000000000000000000000000000000204906114b0565b90670de0b6b3a7640000907f00000000000000000000000000000000000000000000000000000000000000000204906114a4565b90670de0b6b3a7640000907f0000000000000000000000000000000000000000000000000000000000000000020490611498565b90670de0b6b3a7640000907f000000000000000000000000000000000000000000000000000000000000000002049061148d565b90670de0b6b3a7640000907f0000000000000000000000000000000000000000000000000000000000000000020490611482565b90670de0b6b3a7640000907f0000000000000000000000000000000000000000000000000000000000000000020490611477565b90670de0b6b3a7640000907f000000000000000000000000000000000000000000000000000000000000000002049061146c565b90670de0b6b3a7640000907f0000000000000000000000000000000000000000000000000000000000000000020490611461565b90670de0b6b3a7640000907f0000000000000000000000000000000000000000000000000000000000000000020490611456565b90670de0b6b3a7640000907f000000000000000000000000000000000000000000000000000000000000000002049061144b565b90670de0b6b3a7640000907f0000000000000000000000000000000000000000000000000000000000000000020490611440565b90670de0b6b3a7640000907f0000000000000000000000000000000000000000000000000000000000000000020490611436565b90670de0b6b3a7640000907f000000000000000000000000000000000000000000000000000000000000000002049061142c565b90670de0b6b3a7640000907f0000000000000000000000000000000000000000000000000000000000000000020490611422565b90670de0b6b3a7640000907f0000000000000000000000000000000000000000000000000000000000000000020490611418565b90670de0b6b3a7640000907f000000000000000000000000000000000000000000000000000000000000000002049061140e565b90670de0b6b3a7640000907f0000000000000000000000000000000000000000000000000000000000000000020490611404565b90670de0b6b3a7640000907f00000000000000000000000000000000000000000000000000000000000000000204906113fa565b90670de0b6b3a7640000907f00000000000000000000000000000000000000000000000000000000000000000204906113f0565b90670de0b6b3a7640000907f00000000000000000000000000000000000000000000000000000000000000000204906113e7565b90670de0b6b3a7640000907f00000000000000000000000000000000000000000000000000000000000000000204906113de565b90670de0b6b3a7640000907f00000000000000000000000000000000000000000000000000000000000000000204906113d5565b90670de0b6b3a7640000907f00000000000000000000000000000000000000000000000000000000000000000204906113cc565b90670de0b6b3a7640000907f00000000000000000000000000000000000000000000000000000000000000000204906113c3565b90670de0b6b3a7640000907f00000000000000000000000000000000000000000000000000000000000000000204906113ba565b670de0b6b3a76400009192507f0000000000000000000000000000000000000000000000000000000000000000020490386113b0565b6113a5565b907f0000000000000000000000000000000000000000000000000000000000000000908181101561237a5750805b03816001821661233c575b5060028116612300575b600481166122c4575b60088116612288575b6010811661224c575b60208116612210575b604081166121d4575b60808116612198575b610100811661215c575b6102008116612120575b61040081166120e4575b61080081166120a8575b611000811661206c575b6120008116612030575b6140008116611ff4575b6180008116611fb8575b620100008116611f7c575b620200008116611f40575b620400008116611f04575b620800008116611ec8575b621000008116611e8c575b622000008116611e50575b624000008116611e14575b628000008116611dd8575b63010000008116611d9c575b63020000008116611d60575b63040000008116611d24575b63080000008116611ce8575b63100000008116611ca5575b632000000016611c6d5790565b611ca290670de0b6b3a76400007f00000000000000000000000000000000000000000000000000000000000000009102611023565b90565b90611ce0632000000091670de0b6b3a76400007f00000000000000000000000000000000000000000000000000000000000000009102611023565b919050611c60565b90611d1e90670de0b6b3a76400007f00000000000000000000000000000000000000000000000000000000000000009102611023565b90611c54565b90611d5a90670de0b6b3a76400007f00000000000000000000000000000000000000000000000000000000000000009102611023565b90611c48565b90611d9690670de0b6b3a76400007f00000000000000000000000000000000000000000000000000000000000000009102611023565b90611c3c565b90611dd290670de0b6b3a76400007f00000000000000000000000000000000000000000000000000000000000000009102611023565b90611c30565b90611e0e90670de0b6b3a76400007f00000000000000000000000000000000000000000000000000000000000000009102611023565b90611c24565b90611e4a90670de0b6b3a76400007f00000000000000000000000000000000000000000000000000000000000000009102611023565b90611c19565b90611e8690670de0b6b3a76400007f00000000000000000000000000000000000000000000000000000000000000009102611023565b90611c0e565b90611ec290670de0b6b3a76400007f00000000000000000000000000000000000000000000000000000000000000009102611023565b90611c03565b90611efe90670de0b6b3a76400007f00000000000000000000000000000000000000000000000000000000000000009102611023565b90611bf8565b90611f3a90670de0b6b3a76400007f00000000000000000000000000000000000000000000000000000000000000009102611023565b90611bed565b90611f7690670de0b6b3a76400007f00000000000000000000000000000000000000000000000000000000000000009102611023565b90611be2565b90611fb290670de0b6b3a76400007f00000000000000000000000000000000000000000000000000000000000000009102611023565b90611bd7565b90611fee90670de0b6b3a76400007f00000000000000000000000000000000000000000000000000000000000000009102611023565b90611bcc565b9061202a90670de0b6b3a76400007f00000000000000000000000000000000000000000000000000000000000000009102611023565b90611bc2565b9061206690670de0b6b3a76400007f00000000000000000000000000000000000000000000000000000000000000009102611023565b90611bb8565b906120a290670de0b6b3a76400007f00000000000000000000000000000000000000000000000000000000000000009102611023565b90611bae565b906120de90670de0b6b3a76400007f00000000000000000000000000000000000000000000000000000000000000009102611023565b90611ba4565b9061211a90670de0b6b3a76400007f00000000000000000000000000000000000000000000000000000000000000009102611023565b90611b9a565b9061215690670de0b6b3a76400007f00000000000000000000000000000000000000000000000000000000000000009102611023565b90611b90565b9061219290670de0b6b3a76400007f00000000000000000000000000000000000000000000000000000000000000009102611023565b90611b86565b906121ce90670de0b6b3a76400007f00000000000000000000000000000000000000000000000000000000000000009102611023565b90611b7c565b9061220a90670de0b6b3a76400007f00000000000000000000000000000000000000000000000000000000000000009102611023565b90611b73565b9061224690670de0b6b3a76400007f00000000000000000000000000000000000000000000000000000000000000009102611023565b90611b6a565b9061228290670de0b6b3a76400007f00000000000000000000000000000000000000000000000000000000000000009102611023565b90611b61565b906122be90670de0b6b3a76400007f00000000000000000000000000000000000000000000000000000000000000009102611023565b90611b58565b906122fa90670de0b6b3a76400007f00000000000000000000000000000000000000000000000000000000000000009102611023565b90611b4f565b9061233690670de0b6b3a76400007f00000000000000000000000000000000000000000000000000000000000000009102611023565b90611b46565b612373919250670de0b6b3a76400007f00000000000000000000000000000000000000000000000000000000000000009102611023565b9038611b3c565b611b3156fea2646970667358221220ce18381726c27deb371924a32f946f80c0608551a780c7ec08df3f9c0627dccd64736f6c63430008130033",
  "devdoc": {
    "kind": "dev",
    "methods": {
      "owner()": {
        "details": "Returns the address of the current owner."
      },
      "renounceOwnership()": {
        "details": "Leaves the contract without owner. It will not be possible to call `onlyOwner` functions anymore. Can only be called by the current owner. NOTE: Renouncing ownership will leave the contract without an owner, thereby removing any functionality that is only available to the owner."
      },
      "transferOwnership(address)": {
        "details": "Transfers ownership of the contract to a new account (`newOwner`). Can only be called by the current owner."
      }
    },
    "version": 1
  },
  "userdoc": {
    "kind": "user",
    "methods": {},
    "version": 1
  },
  "storageLayout": {
    "storage": [
      {
        "astId": 7,
        "contract": "contracts/VestedVotingPower.sol:VestedVotingPower",
        "label": "_owner",
        "offset": 0,
        "slot": "0",
        "type": "t_address"
      },
      {
        "astId": 2226,
        "contract": "contracts/VestedVotingPower.sol:VestedVotingPower",
        "label": "_vestingsByReceiver",
        "offset": 0,
        "slot": "1",
        "type": "t_mapping(t_address,t_struct(AddressSet)1403_storage)"
      }
    ],
    "types": {
      "t_address": {
        "encoding": "inplace",
        "label": "address",
        "numberOfBytes": "20"
      },
      "t_array(t_bytes32)dyn_storage": {
        "base": "t_bytes32",
        "encoding": "dynamic_array",
        "label": "bytes32[]",
        "numberOfBytes": "32"
      },
      "t_bytes32": {
        "encoding": "inplace",
        "label": "bytes32",
        "numberOfBytes": "32"
      },
      "t_mapping(t_address,t_struct(AddressSet)1403_storage)": {
        "encoding": "mapping",
        "key": "t_address",
        "label": "mapping(address => struct EnumerableSet.AddressSet)",
        "numberOfBytes": "32",
        "value": "t_struct(AddressSet)1403_storage"
      },
      "t_mapping(t_bytes32,t_uint256)": {
        "encoding": "mapping",
        "key": "t_bytes32",
        "label": "mapping(bytes32 => uint256)",
        "numberOfBytes": "32",
        "value": "t_uint256"
      },
      "t_struct(AddressSet)1403_storage": {
        "encoding": "inplace",
        "label": "struct EnumerableSet.AddressSet",
        "members": [
          {
            "astId": 1402,
            "contract": "contracts/VestedVotingPower.sol:VestedVotingPower",
            "label": "_inner",
            "offset": 0,
            "slot": "0",
            "type": "t_struct(Set)1088_storage"
          }
        ],
        "numberOfBytes": "64"
      },
      "t_struct(Set)1088_storage": {
        "encoding": "inplace",
        "label": "struct EnumerableSet.Set",
        "members": [
          {
            "astId": 1083,
            "contract": "contracts/VestedVotingPower.sol:VestedVotingPower",
            "label": "_values",
            "offset": 0,
            "slot": "0",
            "type": "t_array(t_bytes32)dyn_storage"
          },
          {
            "astId": 1087,
            "contract": "contracts/VestedVotingPower.sol:VestedVotingPower",
            "label": "_indexes",
            "offset": 0,
            "slot": "1",
            "type": "t_mapping(t_bytes32,t_uint256)"
          }
        ],
        "numberOfBytes": "64"
      },
      "t_uint256": {
        "encoding": "inplace",
        "label": "uint256",
        "numberOfBytes": "32"
      }
    }
  }
}